:100000000C942A000C9434000C9434000C943400AA
:100010000C9434000C9434000C9434000C94340090
:100020000C9434000C9434000C9434000C94340080
:100030000C9434000C9434000C9434000C94340070
:100040000C9434000C9434000C9434000C94340060
:100050000C94340011241FBECFE5D8E0DEBFCDBF25
:100060000E9436000C9463000C9400008FE087BB64
:10007000A1E068EC70E0A8BB40E050E021C0FB01CB
:100080003197F1F70197D9F788B3880F88BB88B308
:10009000803189F420E030E088B3869588BB84EC19
:1000A00099E0FB013197F1F70197D9F72F5F3F4FA7
:1000B0002430310589F74F5F5F4F44305105D9F245
:0A00C00084EC99E0DCCFF894FFCF48
:00000001FF
